:400000000080002011000000310300003103000010B500F095F9C04670B51B4C12232360182001F073FA194A194B1A60FE221202184B1A60184B1949196019490A60194AC5
:400040001A60CF210902184A1160184A1A6080221206174B1A600025164B1D604022164B1A600132154B1A600132154B1A601549082001F095F9082001F086F9124B1D60F5
:400080001123236070BDC046300010400600008004010B40000301400000014040FF00800403014041FF00800803014042FF008008010B4000010B401C010140180101404F
:4000C0000C010140891700000C020B4010B572B600240FE025486200131959000B00411889881A5AC31858880004104300F0E6F80134E4B2012CEDD91C4801000C312830E4
:4001000000F0C2F81A4A1B4B1A6099231B041A4A13608A21C903194A1160194A136019490B783C22934314221343DBB20B70164A117816230B43DBB213700223134A1360DC
:400140001349144A1160144A1360DB229202134B1A604422124B1A600323124A1360124A1360FFF759FF00F0CFF810BDEC1D000099EE00000003024050500F4058500F408C
:4001800070500F4001700F4000700F4000030440B10D000008030440180304400804044018040440000704401807044010B5064C2378002B07D1054B002B02D0044800E072
:4001C00000BF0123237010BD5001002000000000E81D0000084B10B5002B03D00749084800E000BF07480368002B00D110BD064B002BFBD09847F9E70000000054010020F3
:40020000E81D0000C00000200000000010B562B600F018F900F0DEF9642001F0D3F8012000F0F0F8012000F0E1F8012000F0D2F801F010FB01F084FBC4B2002CFAD0612CD1
:4002400009D1002000F0C6F8FA20400001F0BAF8012000F0BFF8622C09D1002000F0C6F8FA20400001F0AEF8012000F0BFF8632CE0D1002000F0C6F8FA20400001F0A2F82F
:40028000012000F0BFF8D5E7F0B50025002711E0BB00C658F3B2FF22964308E06A008A181478A419527822700135013BDBB2002BF4D10137042FEBD9F0BDC04610B50A0027
:4002C000002101F088FD10BD0C4B1B68002803D080221206134301E05B005B08074A1360074B1B68002803D080229204134301E0044A1340024A13607047C04680033A40F9
:4003000008010B40FFFFFFFD10B50323054A1360054A13600022054B1A600120FFF7D4FF10BDC0463000304030003140000E3F4010B501F01BFD03680C2B00D1FEE7FEE77E
:4003400070B50F4E0F4D13E029686B68AC68002202E001C901C30432A242FAD1E868002202E0002102C304328242FAD11035013E002EE9D101F000FDFFF748FFFEE7C0463C
:4003800001000000701F000010B50E4A136801218B43136000230AE0032B03D89A000A49505800E009489900094A885001332F2BF2D9FFF78BFE034A116801230B4313608F
:4003C00010BDC0460000104000000000310300000000002004490A68D2B208239A43C00018401043086070470004044004490A68D2B210239A43000118401043086070474B
:400400000004044004490A68D2B220239A43400118401043086070470004044010B5084B1B78002B06D100F053F800F087F80122034B1A7000F020F800F05AFB10BDC0464C
:400440006C01002010B5FFF7E9FF041E02D100F0A5FA0400002C02D100F08CF90400002C03D100F049F90028FBD100F019F900F0B1F8200010BDC04670B5002309E012490C
:400480001A1D92008818002444600120404250500133002BF3D00D4C032310E06668A27E094B5B1900211976012A06D12069002803D0F179228B01F08EFC20342B005D1EBF
:4004C000002BEBD170BDC046100200202C1E000070B5164D7C220021280001F07CFC144B2B8080231B016B80124BAB800123AB77114C2800203021006431362201F062FCDA
:400500002100043403230CE0A268238B04E00B78537201310A320300581E002BF7D120342B005D1E002BEFD170BDC04610020020E2D4FFFFB80B0000281E00000023024A1C
:40054000D380024A1360704710020020B8010020FF231940062902D08318002119715300195AC31859808218002313727047C04670B506000D00012305E0220029003000B0
:40058000FFF7E6FF23005C1E002BF6D170BDC04610B54001054B1B188A00511848009A6894466044997EFFF7E3FF10BD2C1E000070B505004301064AD3181B8B04E0210000
:4005C0002800FFF7E5FF23005C1E002BF7D170BD2C1E000010B5032303E02000FFF7E8FF23005C1E002BF8D110BDC046F0B501230EE0FF231340062B09D065006F5A2E1918
:4006000073001F526F5AC3185F806D5A9D8023005C1E002BEDD1F0BDF8B54F464646C0B405004301174AD3185A6891461B8B21E06A01144B9B18A200121957009A689446A8
:400640006744DE683000610009198A00D969884690449A7E062A03D063001B19580030183900FFF7C3FF4B46198A3888424601F0E5FA23005C1E002BDAD10CBC90469946E9
:40068000F8BDC0462C1E000010B5032303E02000FFF7C2FF23005C1E002BF8D110BDC04610B5FFF7F1FF10BD30B5084803680F24A3431900064D2B780F2213400B43E13207
:4006C00093432A78A2431343036030BD00FF284062F2FF0F10B5FFF7E7FF10BD10B5044A1168044B0B40136000F0ACFB10BDC04600040240FFF0FFFF024BDB688020184002
:400700007047C0461002002010B50E4BDB68DB030DD402280DD8430904339B00094A9B581F220240D340DB0705D4012404E0112402E0012400E00024002C01D100F094FB20
:40074000200010BD1002002010B5084BDB68DB0307D4074B1B78012B05D100F009FB002003E0112001E00120404210BD10020020BC01002010B50F4BDB681B0618D4002444
:400780000120404211E02000FFF7BEFF00280BD1012C03D80122084B5A7002E00022064B5A70FFF7D1FF04E00134022CEBD900E0112010BD10020020BC01002010B50400E0
:4007C0000C4B1B78834214D0012B01D1FFF786FF012C05D100F0E8F90122064B1A7008E0022C06D0042C04D0032C02D00022014B1A7010BDBC01002030B500200D4B16E035
:4008000019680A681C69A2430A605C6822689D7E0721A9408A4311000622AA400A43226099680A685C69A2430A601C3301300228E6D930BDC41E000010B51B4A9378013390
:40084000DBB293709078C0B2FFF75EFF041E09D1154B9B78022B02D10022134B5A70FFF773FF1EE0104B9B78022B11D10F4B1A8901321A81DA6880218A43DA60DA68120274
:40088000120ADA60DA6804061443DC60002408E0064AD3681B021B0AD360D16803060B43D360002CC9D110BDBC01002010020020074A084B1A6001380002074B1860054B1F
:4008C0001B68002BFBDB054A024B1A607047C04640000040000001400003014040FF0080074A084B1A6001380002074B1860054B1B68002BFBDB054A024B1A607047C04613
:4009000041000040000001400403014041FF008070B5002512E06B010A4A9E58002406E0E3001B1B9800301800F06CFA01346B01044AD3181B7E9C42F2D30135022DEAD964
:4009400070BDC0462C1E00004001024B18184368588970472C1E000010B50A4B9C7F0203121A01238B40013B63439A4205D90202101A834203D3402002E0C02000E00020D3
:40098000C0B210BD1002002010B50C00FFF7DCFF40002188FFF7E0FF207310BD70B58CB0FA239B0002AA1380C833538093803F4B93810025002640E06B013D4AD3185C6822
:4009C0000C2323800023237302AB9889394901F041F960815521280000F01CFB23000A330693354B1B7802AA1376344B1888FA239B005843324901F02DF902ABD881180008
:400A000001F0B4F82F4B984203D9062601E05B00638102AB998963892B4A5A439142F6D8002BF4D0294A927F5B00DBB29A4200D36281AA0009ABD0500135022DBCD90024A6
:400A40001EE063011A4AD3185D685521200000F0E1FA06432B000A330693A20009ABD35801930493144B1B7802AA1376EB89D3802B0010330793100001F0A8F82880013435
:400A8000022CDED900240CE06301094AD31859682000FFF779FF5521200000F0BBFA06430134022CF0D930000CB070BDE02E00002C1E0000DC050000CC000020CE00002074
:400AC000FF0F0000870D0100383100001002002010B5002407E06301044AD31859682000FFF752FF0134022CF5D910BD2C1E000010B5FFF7EFFDFFF7EBFFFFF77DFE00F0F3
:400B000053F80120FFF75AFE002010BD014A024B1A6070470002000108002840044A1168044B0B40802189000B4313607047C04608002840FFFCFFFC014A024B1A6070479A
:400B4000000200010800284070B50E001500038801249C40013CA3001B195800642101F079F8013083199C4200D22300B04201D8301A00E00020A84203D8AB4203D2062079
:400B800002E0062000E0002070BDC04610B5054AC02314689C43204310600800FFF7A0FE10BDC046C400002010B5FFF7B1FEFFF7ADFF074A1168074B0B40C021C9000B4317
:400BC0001360054B1B68054A1343054A136010BD00040240FFF0FFFFC40000202008E8810400284070B50930040000F0CEFE094D2968094B1940094B1A78A35C084C2468F0
:400C0000A218527A120413430B432B6000F0C1FE70BDC0460800284000FF80FF181F00008C02002010B5094B1B785B01084AD3185B685989187B431FDBB2012B02D8490871
:400C400000D10131FFF7A2FF10BDC046BE0100202C1E0000028801239340013B1B04014A53607047C400002070B500F08EFE04001E4B1B681E4A13431E4A13601E4B987FBF
:400C8000FFF716FE1D4A1E4B1A601D4B1B68002BFBDB1C4A1A4B1A601B4E3568272000F06BFE1A4B2B401A4A13433360E123DB0100E0013B174A1268120701D4002BF8D133
:400CC000114B1D60094D144B2A681343094A1360122000F059FB6F2000F04EFE6A680F4B1A60200000F055FE70BDC046C40000202008E881040028401002002041000040A7
:400D00000000014041FF00800800284000E8FFBFF0060040100028402018E8810C00284010B5044AD36804490B43D360FFF79CFF10BDC046100200208000010070B504007D
:400D4000857E067E00F021FE23681B680F22B24093431A000423B3401343666832680721A9408A4332602268136000F012FE70BD70B5154E3378154D5B01EB185868144C36
:400D80000023237033785B01EB1899682378DBB29A00D3185A008A180E4B1A60FFF722FF33785B0158592278D2B2D3009A1A9300C018094B1860FFF7C1FF084800F0D6F986
:400DC000FFF7AEFF70BDC046BE0100202C1E0000BF0100208C02002090020020A51A000010B54001054BC058CB00591A8B00C018034B1860FFF7A2FF10BDC0462C1E00006C
:400E00009002002070B50400007EA57E21680B680F22824093430B6000F0B7FD61680B680722AA4093431A000623AB4013430B6000F0AFFDA1680B68607E0122824093439D
:400E40000B6070BD10B5064B1B78012B06D1054B1868FFF7D7FF0022014B1A7010BDC046C00100209002002070B5104E4301F3185D68C0B20E4C20700120FFF79FFCFFF799
:400E8000E1FF23785B019A590A4B1A600A4BDA687F218A43DA602178DA680A43DA602800FFF7D8FEFFF7BEFE70BDC0462C1E0000BE010020900200201002002070B54301AA
:400EC000134AD3185D68C9B2124C217099682378DBB29A00D3185A008A180F4B1A60FFF7C3FF2800FFF77EFE2378DBB20B49DA00D31A98000B689C4660440860FFF71EFF5C
:400F00000122074B1A70074800F030F970BDC0462C1E0000BF0100208C02002090020020C0010020611A0000F0B5474680B482B007000E0090462F4A13785B012E49CB18F4
:400F40005B680193002333701078C0B22B4B1978C9B2FFF7B3FFFFF7E1FD002480256D00BC4202D23378AB4333706D0833782B4333700198FFF736FEFFF7D2FEE123DB017E
:400F800000E0013B1E4AD268120601D5002BF8D11C4B1B681C88002DE2D1164B1B785B01154A9858154B1A78D2B2D3009A1A9300C018154B1860FFF725FF0022134B1A7020
:400FC000FFF7BAFD220039000198FFF7BDFD43461A7833789A4204D2424613700C4A13725481084B1B6832785A7202B004BC9046F0BDC046BE0100202C1E0000BF0100201D
:40100000100200208C02002090020020C0010020C4000020F0B54F4680B484B0040089464301384AD3185F68012503AB1D703B882800984001384843642100F00BFE019075
:40104000E2B2314B1A70314800F090F83E0009362F4B1D725D8100222E4B1A7000250AE003AA31000198FFF75FFF0543294A13780133DBB213706301224AD318DA7E254B75
:401080001B78DBB29A42EBD803AB1B7801335B087B7200221F4B1A7022E06301194AD3189E681C4B1B78DBB29A00D3185A00B618194B1E60737A787A83420AD31B1AD8B286
:4010C00070724B4658436330642100F0C3FD707201E0002373720F4A13780133DBB213706301084AD318DA7E0A4B1B78DBB29A42D3D80022074B1A70280004B004BC9146C1
:40110000F0BDC0462C1E0000BE010020611A0000C4000020BF0100208C0200208823014AD05070470000002010B5040000F02DFC044A1168044B0B40A4051C43146000F04A
:4011400028FC10BD10E400E0FFFF3FFF8022D202014B1A607047C04600E100E08022D202014B1A607047C04680E100E010B50400FFF7F4FF2000FFF7D1FF0320FFF7D4FFF6
:40118000FFF7E4FF10BDC04600230AE00D4A12683F210A400C49C95C8A4201D1033303E001332D2BF2D9032308490868084A02400A60084A944663441B78DBB2064A1360D8
:4011C0007047C0462CFF0B401C1F000000002240FFFFFFBF4DF3FF0F28FF0B40034B18688023DB05184000D0012070470000224030B52D4B1A783F231340042B01D9012022
:4012000000E0002000230AE0284A12683F210A402749C95C8A4201D1033303E001332D2BF2D9032323490A680124A2430A60224A126822490A6000280FD021490D681F4CE4
:4012400065601F24A2431F4C247822431A4C22601D4A1278D2B20A6005E01F218A4317390A4315490A60302B0BD1002803D0174B1B78DBB202E0164B1B78DBB2154A13600E
:401280000CE0182B0AD1002803D0134B1B78DBB202E0124B1B78DBB20E4A1360104A116802230B43136030BD00F3FF0F2CFF0B401C1F000050000C4034FF0B40C40100202A
:4012C00020FF0B40C0F1FF0FC1F1FF0FC3F1FF0F3FF3FF0F28FF0B40C2F1FF0F3EF3FF0F24002C4030B51A4B1A783F231340042B01D9012000E0002000230AE0154A126860
:401300003F210A401449C95C8A4201D1033303E001332D2BF2D9032310490A680224A2430A600F4C21681F2291430E4D2D682A400A432260002803D00A4A51680A4A11601E
:401340000A4A944663441B78DBB2094A136030BD00F3FF0F2CFF0B401C1F000024002C4034FF0B40C401002020FF0B404DF3FF0F28FF0B40034B1B680220184000D00120BA
:401380007047C04624002C401F2318401E3B8340014A13607047C04600E100E001BE704770B504000D001F2802D90020FFF7F6FF1034A40080239B059C4664442068256053
:4013C00070BDC04610B5040006E0084B586800F0D3FA074B9C46644480231B029C42F4D8024B9868604300F0C7FA10BDD00000200080FFFF70B582B000F070F9002862D00F
:4014000000F0C3FA0500314A116801230B43136000230AE02E4A12683F210A402D49C95C8A4201D1033303E001332D2BF2D903230021294A1160294A1268D20606D1274899
:4014400002681F318A4313390A430260244C2168244A1140244A5A438023DB019C466244D20B013A5205520D0B001343A0225203134323601D4B1B680193302000F03EFB09
:401480001B4A13688021C9050B4313602668194B1E40002407E00120FFF794FF1034A30533430F4A1360EE2CF5D90120FFF78AFFFF239B051E430A4B1E60019A0B4B1A6000
:4014C000280000F066FA02B070BDC04650000C402CFF0B401C1F000028FF0B4034FF0B400800224000F800C040420F003000104000002240FFFF3FC010B5034B1B7B58437C
:4015000000F03AFA10BDC046D0000020F0B55F4656464D464446F0B483B0040000F035FA0190FFF75BFE002804D0FFF72DFE01239A4601E000239A46FFF71CFF002808D0D1
:40154000182C01D0302C07D1FFF7CCFE01239B4604E000239B4601E000239B46E61E2D2E74D8464B1B78DBB29C4208D8444B1B78DBB29946434B1B78DBB2984631E0424BBE
:401580001B78DBB29C4208D8404B1B78DBB299463F4B1B78DBB2984623E03E4B1B78DBB29C4208D83C4B1B78DBB299463B4B1B78DBB2984615E03A4B1B78DBB29C4208D86F
:4015C000384B1B78DBB29946374B1B78DBB2984607E0364B1B78DBB29946354B1B78DBB29846344B9F5D2F2F09D92A2C07D91922314B1A60052000F0BFF9192503E02E4B7B
:401600001D683F231D40BD4206D92A4B9A5D2A4B1A60052000F0B0F9254B9C4664442378DBB2264A1360264B4A461A60254B42461A600520FFF760FFBD420AD21D4B9A5DC9
:401640001D4B1A60052000F097F902E00020FFF7A5FE5346012B01D1FFF7CCFE5B46012B01D1FFF7C5FD019800F093F903B03CBC90469946A246AB46F0BDC04640F3FF0F58
:4016800041F3FF0F42F3FF0F43F3FF0F44F3FF0F45F3FF0F46F3FF0F47F3FF0F48F3FF0F49F3FF0F4AF3FF0F4BF3FF0F4CF3FF0F4DF3FF0F1C1F00002CFF0B4028FF0B405F
:4016C0001CFF0B4020FF0B40034B1868C0231B02184000D00120704700010B40034B1B68002B01DA012000E0002070470000224010B500F04AF9044A1368C02109020B43F4
:40170000136000F046F910BD00010B4010B500F03CF908490A68084B1A408024E40122430A600A6813408022120213430B6000F030F910BD00010B40FF3FFFFF70B5050068
:4017400000F023F90400FFF7BFFF002803D0FFF7DDFF012100E0002108482840084A1568084B2B40184310601368012901D1FFF7BFFF200000F00DF970BDC0460404040025
:4017800010020B40FBFBFBFF10B5244B1B685B0715D5234B5B685B070ED5224B596A042001401F4C62688A4362605A6A82435A629B69002B00D098470420FFF7BFFF174BAD
:4017C0001B685B0518D5164B5B685B0510D5154B596A8022D2001140114842688A434260596A114A0A405A62DB69002B00D098478020C000FFF7A2FF084B1B685B030CD508
:40180000074B5B685B0304D5064B1B6A002B00D098478020C002FFF791FF10BD10020B40E4000020E4010020FFFBFFFF10B500F075F810BD10B500F01DF810BD10B5044A00
:401840001368802109060B431360FFF7EFFF10BD0000254010B5064B1B78002B04D1FFF7E9FF0122024B1A70FFF7E8FF10BDC0460C020020154A164B1A600023154A1360D8
:401880001549164A1160164A16490A6007201649086016490B6006381549086015490A60154A13600421154A1160154A1360154A1360154A1360154A1360154A1360154A0C
:4018C00013601268144B1A807047C0460B000002000025404000254001000A0048002540070000800003254004032540100325404400254000022540040225405000254073
:40190000880E2540C80E2540480F2540080F2540C80F2540880F25400E02002005490B68F0229343603A13430B60034B1A88034B1A607047000302400E020020880F2540ED
:4019400010B500F00BF9002802D000F001F901E0064B1868064A1368D821890011601B02D82292021340184310BDC04640032540C00F2540000000000230800803D001388C
:40198000FDD1C046C046C0467047EFF3108072B6704780F310887047044B1A68044B1B78044909685B00D1527047C0468C020020181F00000C00284070B5224B1A782249E9
:4019C00052018A1850681B785B01CB181A7E013A1E4B1B78DBB29A421CD91C4C23780133DBB22370174D2B785B01CB1899682378DBB29A00D3185A008A18154B1A60FFF724
:401A0000F1F82878C0B22178C9B2FFF7E9F9FFF72BF916E000220D4B1A700E4AD1680E4B0B40D3600D4B1B78012B02D1FEF704FF07E0084BDA6880218A43DA601A89013267
:401A40001A8170BDBE0100202C1E0000BF0100208C02002010020020FFFFFEFFBD01002010B50122094B1A60FFF796FF084B1B68084A1343084A1360084B1A8901321A8194
:401A8000D968074A0A40DA6010BDC04614002840C40000202008E88104002840100200207FFFFEFF10B50E4B1B785B010D4A9C580D4B1A78D2B2D1008A1A9300E418012246
:401AC0000A4B1A60FFF768FF094B1B68094A1343094A13602000FFF795F9FFF76DFF10BDBE0100202C1E0000BF01002014002840C40000202008E8810400284070B5040012
:401B0000FFF743FF0500102C05D8104A136803218B43136016E0202C07D80C490B6803229343023A13430B600CE0302C07D807490B6803229343013A13430B6002E0002051
:401B4000FFF72CFC2800FFF724FF70BD30001040014B18687047C04640032540024B1B681F2018407047C04608032540F7B5036986890193C3898588FA275D43019B04001F
:401B80001988300000F066F8BF007D4381B2280000F060F8237E6188584300F05BF8050020883900684300F055F80749704300F051F80123002802D040085B00FAE7019A35
:401BC00028001380FEBDC04600E1F50570B504004088217E0304181AA388594300F03AF8236905001988A08900F034F880B26843104900F02FF8E3880A21584300F02AF8D5
:401C000000230D4AA16810258A425B410222D31A62325343984204D9013DEDB24008062DF8D14B236421584300F014F864692080280070BDA0860100A76100008B081380D0
:401C40000F2393720023C90851809080D0801081D3727047002243088B4274D303098B425FD3030A8B4244D3030B8B4228D3030C8B420DD3FF22090212BA030C8B4202D3C3
:401C80001212090265D0030B8B4219D300E0090AC30B8B4201D3CB03C01A5241830B8B4201D38B03C01A5241430B8B4201D34B03C01A5241030B8B4201D30B03C01A52415E
:401CC000C30A8B4201D3CB02C01A5241830A8B4201D38B02C01A5241430A8B4201D34B02C01A5241030A8B4201D30B02C01A5241CDD2C3098B4201D3CB01C01A5241830973
:401D00008B4201D38B01C01A524143098B4201D34B01C01A524103098B4201D30B01C01A5241C3088B4201D3CB00C01A524183088B4201D38B00C01A524143088B4201D389
:401D40004B00C01A5241411A00D20146524110467047FFE701B5002000F006F802BDC0460029F7D076E770477047C046014B18687047C0464C0100200E4B70B500251E00B0
:401D80000D4CE41AA410A54204D0AB00F35898470135F8E700F0DAF8084B00251E00084CE41AA410A54204D0AB00F35898470135F8E770BD581F0000581F0000581F0000DE
:401DC000601F0000002310B59A4203D0CC5CC4540133F9E710BD03008218934202D019700133FAE7704700000000000000300F40000800400F400008B80ABE05D804DF01B4
:401E000018A0B4505020D40438043C049004B424CE03EC0A04320F4001330F4001350F4002450F4006460F4020202000C41E0000300200206602002080010020B40100209F
:401E40000128000001000101A0010020E01E0000420200207002002078010020B0010020012800000100010194010020FC1E0000540200207A02002070010020AC010020AC
:401E80000128000001000101880100200C00640028280A031E2004000000840300000C00640028280A031E2004000000840300000C00640028280A031E200400000084038B
:401EC00000000000000402400804044000040440040404400000000F4000000018061200000702400807044000070440040704400F000000010000000000000000070240AA
:401F0000080704400007044004070440F0000000020000000401030000000000030405060708090A0B0C0E0F101112131415161718191B1C1D1E1F202122232526272829AB
:401F40002A2B2E2F3031323334354300F8B5C046F8BC08BC9E467047D501000089030000F8B5C046F8BC08BC9E467047AD010000801F0000C0000020900000004801000049
:401F8000000000000008C0010000FF0F01000100010000000000E02EC05D00001800000000366E01F000000004040400000000000000000000000000000000000000000063
:401FC0000000000000000000000000004A1F000000000000000000000000000000000000000000000000000000000000000000000000000000000000000000000000000078
:40200000000000000000000000000000EC00002000000000000000000000000000000000000000000000000000000000000000000000000000000000000000000000000094
:402040000000000000000000000000000000000000000000000000000000000000000000000000000000000000000000000000000000000000000000000000000000000060
:402080000000000000000000000000000000000000000000000000000000000000000000000000000000000000000000000000000000000000000000000000000000000020
:4020C00000000000000000000000000000000000000000000000000000000000000000000000000000000000000000000000000000000000000000000000000000000000E0
:40210000000000000000000000000000000000000000000000000000000000000000000000000000000000000000000000000000000000000000000000000000000000009F
:020000040003F7
:0200000490303A
:0200000049D3E2
:0200000490402A
:4000000000000000000000000000000000000000000000000000000000000000000000000000000000000000000000000000000000000000000000000000000000000000C0
:400040000000000000000000000000000000000000000000000000000000000000000000000000000000000000000000000000000000000000000000000000000000000080
:0200000490501A
:0C0000000002100E11A0000110185B732C
:0200000490600A
:0100000001FE
:00000001FF